:100000000C9440010C94E7050C94BC050C949105EC
:100010000C9466050C943B050C9410050C94E504B7
:100020000C94BA040C9471010C9471010C9471013C
:100030000C9471010C9471010C9471010C94710178
:100040000C9471010C9471010C9471010C94710168
:100050000C9471010C9471010C9471010C94700456
:100060000C9471010C943C060C9412060C947101D2
:100070000C9471010C9471010C9471010C94710138
:100080000C9471010C9471010C9471010C94710128
:100090000C9471010C9471010C9471010C94710118
:1000A0000C9471010C9471010C9471010C94710108
:1000B0000C9471010C9471010C9471010C947101F8
:1000C0000C9471010C9471010C9471010C947101E8
:1000D0000C9471010C9471010C9471010C947101D8
:1000E0000C9471010C94BA010C94EB020C94FF0275
:1000F0000C94B6010C94D2010C9490020C947206EC
:100100000C94BE010C94A3010C94D6010C94AF0284
:100110000C94C4010C94C8010C9497010C94A40293
:100120000C942C0A0C94B0010C94AC010C94AE020B
:100130000C9492030C94A6010C949B010C94CC019A
:100140000C949A020C949F010C9445030C94D101D9
:100150000C940D030C94DC020C949101000020001F
:100160002300260029002C002F003200000100008F
:1001700003010601090100002100240027002A00D4
:100180002D003000330001010000040107010A01C5
:1001900000002200250028002B002E003100340032
:1001A00002010000050108010B0105050505070511
:1001B00008080808020202020A0A080804040404E3
:1001C000010101010101010103030303030303030F
:1001D000040707070C0C0C0C0C0C0C0C020202029E
:1001E00006060606060606060B0B0B0B0B0B0B0B87
:1001F0000102102020080810204010204080020139
:10020000020108040201010204081020408080401D
:10021000201008040201800402018040201008041C
:1002200002010804020101020408102040800102BA
:1002300004081020408000000A0B02090C0D0E0873
:10024000070304010000000000000000000000009F
:10025000000000000000000000000000000000009E
:10026000000012111000000000000000000000005B
:1002700000000000000000000000000072062C0AD0
:1002800011241FBECFEFD1E2DEBFCDBF00E00CBF17
:1002900023E0A0E0B3E001C01D92A53CB207E1F766
:1002A00013E0A0E0B2E0E6E7FEE100E00BBF02C031
:1002B00007900D92A030B107D9F711E0CFE3D1E05C
:1002C00000E006C021970109802FFE010E94350A37
:1002D000CE33D10780E00807A9F70E94F9060C94F5
:1002E000290F0C9400008150823108F05AC0E82F89
:1002F000F0E08827E158FE4F8F4F0C94350A9F019C
:10030000A301910197019B01D101A601AC01B001AC
:10031000B601BA01BE01C401C801D101CC01D201AC
:10032000D601809180008F7780938000089580911E
:1003300080008F7DF9CF80918000877FF5CF84B5D5
:100340008F7784BD089584B58F7DFBCF8091B000F9
:100350008F778093B00008958091B0008F7DF9CFA2
:10036000809190008F778093900008958091900005
:100370008F7DF9CF80919000877FF5CF8091A0008D
:100380008F778093A00008958091A0008F7DF9CF92
:100390008091A000877FF5CF809120018F77809397
:1003A00020010895809120018F7DF9CF8091200157
:1003B000877FF5CF1F93CF93DF93282F30E0F9018C
:1003C000EA5CFD4F8491F901E051FE4FD491F901AF
:1003D000E655FE4FC491CC23A9F0162F81110E943F
:1003E0007301EC2FF0E0EE0FFF1FE057FE4FA591D9
:1003F000B4918FB7F894EC91111108C0D095DE2319
:10040000DC938FBFDF91CF911F910895DE2BF8CF42
:10041000CF93DF9390E0FC01E051FE4F249186558D
:100420009E4FFC0184918823D1F090E0880F991FA2
:10043000FC01EA58FE4FA591B491FC01E057FE4F34
:10044000C591D491623071F49FB7F8943C91822F9A
:10045000809583238C93E8812E2B28839FBFDF9187
:10046000CF9108958FB7F894EC912E2B2C938FBFDA
:10047000F6CF3FB7F89480911A0390911B03A09197
:100480001C03B0911D0326B5A89B05C02F3F19F092
:100490000196A11DB11D3FBFBA2FA92F982F882704
:1004A000BC01CD01620F711D811D911D42E0660FDF
:1004B000771F881F991F4A95D1F708958F929F92B1
:1004C000AF92BF92CF92DF92EF92FF924B015C010D
:1004D0000E9439026B017C010E9439026C197D096E
:1004E0008E099F09683E734081059105A8F321E0BC
:1004F000821A9108A108B10888EEC80E83E0D81EC0
:10050000E11CF11C81149104A104B10429F7FF90AE
:10051000EF90DF90CF90BF90AF909F908F90089515
:1005200080910A0390910B03019690930B038093A3
:100530000A0308958091080390910903019690930E
:10054000090380930803089580910603909107039F
:100550000196909307038093060308950895AF9240
:10056000BF92CF92DF92EF92FF920F931F93CF93A0
:10057000DF936C017B018B01040F151FEB015E0102
:10058000AE18BF08C017D10759F06991D601ED9197
:10059000FC910190F081E02DC6011995892B79F726
:1005A000C501DF91CF911F910F91FF90EF90DF90E8
:1005B000CF90BF90AF900895FC01538D448D252FAF
:1005C00030E0842F90E0821B930B541710F0CF96ED
:1005D000089501970895FC01918D828D981761F01F
:1005E000A28DAE0FBF2FB11D5D968C91928D9F5F36
:1005F0009F73928F90E008958FEF9FEF0895FC0115
:10060000918D828D981731F0828DE80FF11D858DC7
:1006100090E008958FEF9FEF0895FC01918D228D5A
:10062000892F90E0805C9F4F821B91098F739927DF
:1006300008958EE193E00E940D0321E0892B09F4D7
:1006400020E0822F0895FC01A48DA80FB92FB11DC1
:10065000A35ABF4F2C91848D90E001968F739927F8
:10066000848FA689B7892C93A089B1898C918370D6
:1006700080648C93938D848D981306C00288F389CF
:10068000E02D80818F7D80830895EF92FF920F93FC
:100690001F93CF93DF93EC0181E0888F9B8D8C8D2E
:1006A00098131AC0E889F989808185FF15C09FB722
:1006B000F894EE89FF896083E889F98980818370E5
:1006C000806480839FBF81E090E0DF91CF911F9194
:1006D0000F91FF90EF900895F62E0B8D10E00F5FB5
:1006E0001F4F0F731127E02E8C8D8E110CC00FB68B
:1006F00007FCFACFE889F989808185FFF5CFCE0123
:100700000E942303F1CFEB8DEC0FFD2FF11DE35A77
:10071000FF4FF0829FB7F8940B8FEA89FB898081A5
:100720008062CFCFCF93DF93EC01888D8823B9F01F
:10073000AA89BB89E889F9898C9185FD03C08081EC
:1007400086FD0DC00FB607FCF7CF8C9185FFF2CF69
:10075000808185FFEDCFCE010E942303E9CFDF9199
:10076000CF91089580E090E0892B29F00E94190331
:1007700081110E94000080E090E0892B49F080E028
:1007800090E0892B29F00E94000081110E94000056
:1007900080E090E0892B49F080E090E0892B29F0FF
:1007A0000E94000081110E94000080E090E0892BEF
:1007B00049F080E090E0892B29F00E94000081112F
:1007C0000C9400000895FC0101900020E9F7319796
:1007D000AF01481B590BBC018EE193E00C94AF02B2
:1007E000CF93DF930E94E303EC0180E492E00E9448
:1007F000E3038C0F9D1FDF91CF9108950F931F93FB
:10080000CF93DF93CDB7DEB7A1970FB6F894DEBFD5
:100810000FBECDBF19A2805D88A3CE0180960E9435
:10082000E3038C0180E492E00E94E303800F911FB8
:10083000A1960FB6F894DEBF0FBECDBFDF91CF916A
:100840001F910F9108950F931F93CF93DF93082F5C
:1008500083E20E94DA01D0E0C0E010E0B8018C2F02
:100860000C2E02C0759567950A94E2F761708A5E56
:100870000E94DA012196C830D10581F761E085E256
:100880000E94DA0160E085E20E94DA018BE891E0E3
:100890000197F1F7DF91CF911F910F91089560E0DB
:1008A00080EC0E94230462E370E080E090E00C940E
:1008B0005E0260E081E00E94230462E370E080E079
:1008C00090E00C945E02CF93DF93EC018991882332
:1008D00021F061E00E942304F9CFDF91CF910895C8
:1008E0001F920F920FB60F9211242F933F938F9365
:1008F0009F93AF93BF938091160390911703A0919C
:100900001803B09119033091150323E0230F2D37FD
:1009100058F50196A11DB11D209315038093160370
:1009200090931703A0931803B093190380911A03AF
:1009300090911B03A0911C03B0911D030196A11D72
:10094000B11D80931A0390931B03A0931C03B093D3
:100950001D03BF91AF919F918F913F912F910F9068
:100960000FBE0F901F90189526E8230F0296A11D29
:10097000B11DD2CF1F920F920FB60F9211240BB65A
:100980000F922F933F934F935F936F937F938F9328
:100990009F93AF93BF93EF93FF93E0910E02F0917B
:1009A0000F021995FF91EF91BF91AF919F918F9198
:1009B0007F916F915F914F913F912F910F900BBE5F
:1009C0000F900FBE0F901F9018951F920F920FB6A9
:1009D0000F9211240BB60F922F933F934F935F9377
:1009E0006F937F938F939F93AF93BF93EF93FF93F7
:1009F000E0910C02F0910D021995FF91EF91BF91DA
:100A0000AF919F918F917F916F915F914F913F91A6
:100A10002F910F900BBE0F900FBE0F901F90189547
:100A20001F920F920FB60F9211240BB60F922F93B5
:100A30003F934F935F936F937F938F939F93AF9366
:100A4000BF93EF93FF93E0910202F0910302199597
:100A5000FF91EF91BF91AF919F918F917F916F9196
:100A60005F914F913F912F910F900BBE0F900FBE52
:100A70000F901F9018951F920F920FB60F9211248E
:100A80000BB60F922F933F934F935F936F937F9388
:100A90008F939F93AF93BF93EF93FF93E0910002E7
:100AA000F09101021995FF91EF91BF91AF919F9144
:100AB0008F917F916F915F914F913F912F910F9007
:100AC0000BBE0F900FBE0F901F9018951F920F92A4
:100AD0000FB60F9211240BB60F922F933F934F93A3
:100AE0005F936F937F938F939F93AF93BF93EF9396
:100AF000FF93E0910A02F0910B021995FF91EF919B
:100B0000BF91AF919F918F917F916F915F914F9125
:100B10003F912F910F900BBE0F900FBE0F901F9023
:100B200018951F920F920FB60F9211240BB60F92C9
:100B30002F933F934F935F936F937F938F939F93E5
:100B4000AF93BF93EF93FF93E0910802F0910902F6
:100B50001995FF91EF91BF91AF919F918F917F91E7
:100B60006F915F914F913F912F910F900BBE0F901E
:100B70000FBE0F901F9018951F920F920FB60F92F5
:100B800011240BB60F922F933F934F935F936F9364
:100B90007F938F939F93AF93BF93EF93FF93E091D6
:100BA0000602F09107021995FF91EF91BF91AF9165
:100BB0009F918F917F916F915F914F913F912F9175
:100BC0000F900BBE0F900FBE0F901F9018951F92A5
:100BD0000F920FB60F9211240BB60F922F933F93E3
:100BE0004F935F936F937F938F939F93AF93BF9335
:100BF000EF93FF93E0910402F09105021995FF91A4
:100C0000EF91BF91AF919F918F917F916F915F9184
:100C10004F913F912F910F900BBE0F900FBE0F90F1
:100C20001F9018951F920F920FB60F9211240BB6BA
:100C30000F922F933F934F935F936F937F938F9375
:100C40009F93AF93BF93EF93FF938EE193E00E9446
:100C50002303FF91EF91BF91AF919F918F917F916E
:100C60006F915F914F913F912F910F900BBE0F901D
:100C70000FBE0F901F9018951F920F920FB60F92F4
:100C800011240BB60F922F938F939F93EF93FF93A3
:100C9000E0912E03F0912F038081E0913403F091D5
:100CA000350382FD1DC09081809137038F5F8F7364
:100CB00020913803821741F0E0913703F0E0E25EC3
:100CC000FC4F958F80933703FF91EF919F918F9108
:100CD0002F910F900BBE0F900FBE0F901F90189585
:100CE0008081F2CF109221031092200388EE93E0CE
:100CF000A0E0B0E08093220390932303A093240309
:100D0000B093250382E392E090931F0380931E0328
:100D100085EC90E090932B0380932A0384EC90E081
:100D200090932D0380932C0380EC90E090932F03FD
:100D300080932E0381EC90E09093310380933003F5
:100D400082EC90E0909333038093320386EC90E042
:100D50009093350380933403109237031092380335
:100D60001092390310923A031092BC031092BB0305
:100D70001092BE031092BD031092C0031092BF03E5
:100D800061E070E090E080E00E94620B0097E1F08B
:100D90009093BC038093BB031092BE031092BD03DB
:100DA0002091BF033091C003232B11F4FC0110826A
:100DB0001092C0031092BF0362E472E08091BB0303
:100DC0009091BC030C944C0C8091BB039091BC039C
:100DD000009711F00E94D90A1092BC031092BB0335
:100DE0001092C0031092BF031092BE031092BD0375
:100DF0000895CF93DF93CDB7DEB764970FB6F8941D
:100E0000DEBF0FBECDBF789484B5826084BD84B54B
:100E1000816084BD85B5826085BD85B5816085BDF5
:100E200080916E00816080936E00109281008091AD
:100E30008100826080938100809181008160809335
:100E40008100809180008160809380008091B1005A
:100E500084608093B1008091B00081608093B00085
:100E600080919100826080939100809191008160D7
:100E70008093910080919000816080939000809198
:100E8000A10082608093A1008091A1008160809385
:100E9000A1008091A00081608093A0008091210139
:100EA00082608093210180912101816080932101E2
:100EB0008091200181608093200180917A0084607C
:100EC00080937A0080917A00826080937A0080918A
:100ED0007A00816080937A0080917A0080688093A4
:100EE0007A001092C100E0912E03F0912F0382E06E
:100EF0008083E0912A03F0912B031082E0912C0370
:100F0000F0912D038FEC808310923603E091320331
:100F1000F091330386E08083E0913003F091310358
:100F2000808180618083E0913003F0913103808182
:100F300088608083E0913003F09131038081806884
:100F40008083E0913003F091310380818F7D808335
:100F500062E083E10E94080262E084E10E940802EC
:100F600062E085E10E94080261E086E00E940802DA
:100F700061E087E00E94080280E992E09093090214
:100F800080930802809169008F7C80628093690061
:100F9000EA9A8AE992E09093070280930602809190
:100FA0006900837F886080936900E99A84EA92E00F
:100FB0009093050280930402809169008C7F826087
:100FC00080936900E89A62E082E30E94080262E08E
:100FD00083E30E94080262E084E30E94080262E068
:100FE00085E30E9408027EE2C72E72E0D72E0AE255
:100FF00012E0F801F1908F0161E08F2D0E9408024C
:1010000061E08F2D0E94DA01C016D10691F761E0F0
:1010100083E20E94080261E085E20E94080261E02A
:1010200084E20E94080216E161E0812F0E9408021A
:101030001F5F1E31C9F762E370E080E090E00E941C
:101040005E0260E088E30E94230460E08CE00E947E
:10105000230460E086E00E94230460E081E00E94B7
:10106000230465E070E080E090E00E945E0283E48B
:1010700092E00E9463040E944F0484E592E00E9483
:10108000630404EE12E0CE0101967C016AE0462E74
:101090005AE2652E52E0752EB12CA12CF30131904D
:1010A0003F0160E0832D0E94DA016AE070E080E099
:1010B00090E00E945E0246E2842E42E0942ED12C03
:1010C000C12CF40121914F0130E0F901EA5CFD4FA0
:1010D0008491F901E051FE4F5490F901E655FE4F1D
:1010E0002490222011F181110E947301E22DF0E081
:1010F000EE0FFF1FE45AFE4FA591B491EC915E22D2
:10110000A1F0FFEFCF1ADF0A84E0C816D104C9F6B8
:1011100061E0832D0E94DA01FFEFAF1ABF0A84E07D
:10112000A816B10409F0BACF17C068EC70E080E0EF
:1011300090E00E945E0261E0832D0E94DA01C60108
:10114000880F991F880F991F8A5E9D4FA80EB91EA0
:10115000F501D080D11009C064E670E080E090E035
:101160000E945E020E94B20393CF85E692E00E9445
:10117000F0038091140390E00E94FE038FE792E059
:101180000E94F0038091130390E00E94FE038BE91C
:1011900092E00E94F0038091120390E00E94FE030F
:1011A0008DEA92E00E94F0038091110390E00E948A
:1011B000FE0383EC92E00E94F0038091100390E024
:1011C0000E94FE0384ED92E00E94F00380911403DC
:1011D0008823B1F1AD2C0D2C000CBB0890E3A91AAB
:1011E000B108EAE0AE16B10458F5809113038111FD
:1011F00027C00E94590489ED92E00E9463040E9476
:101200004F0480910E0390910F039F938F931F9330
:101210000F93FF92EF920E94530C20910E03309196
:101220000F03429EC001439E900D1124A80EB91ECB
:10123000B0920F03A0920E03C7010E9463043AC04C
:1012400080911303882379F0AD2C0D2C000CBB0882
:10125000F0E3AF1AB1088AE0A816B10420F4809137
:101260001403882371F191E3D9124FC080911003C8
:10127000811172CF8091130381116ECF0E945904A6
:1012800089ED92E00E9463040E944F0480910E0356
:1012900090910F039F938F931F930F93FF92EF9261
:1012A0000E94530CC7010E94630481E080931403E1
:1012B000809310030F900F900F900F900F900F904E
:1012C0004BCF0E94590481EF92E00E9463040E9478
:1012D0004F0480910C0390910D039F938F931F9364
:1012E0000F93FF92EF920E94530C20910C033091C8
:1012F0000D03429EC001439E900D1124A80EB91EFD
:10130000B0920D03A0920C0397CFE2E3DE1223C04C
:1013100080911003811120CF8091140381111CCF83
:101320000E94590481EF92E00E9463040E944F04DE
:1013300080910C0390910D039F938F931F930F93B4
:10134000FF92EF920E94530CC7010E94630481E058
:1013500080931303ADCFFDE3DF12FECE8091100327
:101360008823D1F180911403811136C080910C0340
:1013700090910D03181619063CF080910E03909180
:101380000F031816190644F50E94590489ED92E0DE
:101390000E9463040E944F0480910E0390910F03FA
:1013A0009F938F931F930F93FF92EF920E94530C82
:1013B00020910E0330910F03429EC001439E900D79
:1013C00011240D9690930F0380930E0381E0809378
:1013D00014031092130330CF80911003882309F473
:1013E000BBCE809113038111B7CE80910C039091F5
:1013F0000D031816190644F080910E0390910F0307
:10140000181619060CF0A8CE0E94590481EF92E03C
:101410000E9463040E944F0480910C0390910D037D
:101420009F938F931F930F93FF92EF920E94530C01
:1014300020910C0330910D03429EC001439E900DFC
:1014400011240D9690930D0380930C0381E08093FB
:10145000130310921403F0CE8091BB039091BC0350
:10146000009711F00C94D90A0895EE0FFF1F881F02
:101470008BBF0790F691E02D19940F931F93CF9394
:10148000DF938230910510F482E090E0E091C30395
:10149000F091C40330E020E0B0E0A0E0309799F490
:1014A0002115310509F44AC0281B390B24303105B8
:1014B000D8F58A819B816115710589F1FB019383C0
:1014C0008283FE0111C0408151810281138148173E
:1014D0005907E0F04817590799F4109761F01296F0
:1014E0000C93129713961C933296CF01DF91CF91F4
:1014F0001F910F9108950093C3031093C403F4CF79
:101500002115310551F04217530738F0A901DB01CD
:101510009A01BD01DF01F801C1CFEF01F9CF90932E
:10152000C4038093C303CDCFFE01E20FF31F819369
:1015300091932250310939832883D7CF2091C10359
:101540003091C203232B41F42091120230911302F7
:101550003093C2032093C1032091100230911102F5
:101560002115310541F42DB73EB740911402509139
:101570001502241B350BE091C103F091C203E21761
:10158000F307A0F42E1B3F0B2817390778F0AC01A6
:101590004E5F5F4F2417350748F04E0F5F1F509383
:1015A000C2034093C103819391939FCFF0E0E0E0A9
:1015B0009CCFCF93DF930097E9F0FC013297138221
:1015C0001282A091C303B091C403ED0130E020E08A
:1015D0001097A1F420813181820F931F2091C103C4
:1015E0003091C2032817390709F061C0F093C20394
:1015F000E093C103DF91CF910895EA01CE17DF0791
:10160000E8F54A815B819E0141155105B1F7E90179
:10161000FB83EA8349915991C40FD51FEC17FD074D
:1016200061F4808191810296840F951FE90199836D
:101630008883828193819B838A83F0E0E0E0129625
:101640008D919C9113970097B9F52D913C9111972D
:10165000CD010296820F931F2091C1033091C203E6
:101660002817390739F6309751F51092C4031092B4
:10167000C303B093C203A093C103BCCFD383C2837F
:1016800040815181840F951FC817D90761F44E5FBF
:101690005F4F88819981480F591F518340838A8108
:1016A0009B81938382832115310509F0B0CFF0939C
:1016B000C403E093C3039ECFFD01DC01C0CF1382BE
:1016C0001282D7CF4F925F926F927F928F929F92AA
:1016D000AF92BF92CF92DF92EF92FF920F931F9340
:1016E000CF93DF938C01009799F4CB01DF91CF91D9
:1016F0001F910F91FF90EF90DF90CF90BF90AF9030
:101700009F908F907F906F905F904F900C943D0AC8
:10171000FC01E60FF71F9C0122503109E217F30785
:1017200008F4AEC0D901CD91DC911197C617D70747
:1017300020F1C530D10578F0CE01049786179707C0
:1017400050F0C61BD70B2297C193D1936D937C9316
:10175000CF010E94D90AC801DF91CF911F910F914B
:10176000FF90EF90DF90CF90BF90AF909F908F90C1
:101770007F906F905F904F9008955B01AC1ABD0A07
:101780004C018C0E9D1EA091C303B091C403512C3B
:10179000412CF12CE12C109731F58091C1039091EF
:1017A000C2038815990509F05CC04616570608F073
:1017B00058C08091100290911102009741F48DB7AA
:1017C0009EB74091140250911502841B950BE817A7
:1017D000F90708F055C0F093C203E093C103F90183
:1017E00071836083B8CF8D919C91119712966C9004
:1017F000129713967C901397A815B90559F56C01AB
:1018000042E0C40ED11CCA14DB0420F1AC014A1919
:101810005B09DA011296159780F062827382518318
:101820004083D9016D937C93E114F10471F0D701E9
:101830001396FC93EE9312978ECF22968C0F9D1FDA
:10184000F90191838083F301EFCFF093C403E09318
:10185000C30381CF4816590608F42C017D01D3013A
:101860009ACFCB010E943D0A7C01009749F0AE015E
:10187000B8010E94430CC8010E94D90A87016BCFAE
:1018800010E000E068CFFB01DC0102C001900D9286
:1018900041505040D8F70895FB01DC0101900D92B2
:1018A0000020E1F708950F931F93CF93DF93CDB7F7
:1018B000DEB72E970FB6F894DEBF0FBECDBF0E89F0
:1018C0001F8986E08C831A8309838FEF9FE79E83AD
:1018D0008D83AE01465E5F4F688D798DCE01019696
:1018E0000E94830C2F813885020F131FF80110828C
:1018F0002E960FB6F894DEBF0FBECDBFDF91CF910D
:101900001F910F9108952F923F924F925F926F9285
:101910007F928F929F92AF92BF92CF92DF92EF927F
:10192000FF920F931F93CF93DF9300D000D000D08E
:101930001F921F92CDB7DEB77C013B018A01FC01EB
:1019400017821682838181FFDDC1CE0101965C0181
:10195000F7019381F30193FD859193FF81913F01FD
:10196000882309F453C1853239F493FD859193FF9F
:1019700081913F01853229F4B70190E00E949B0ECE
:10198000E7CF912C212C312CFFE1F31538F08B326D
:1019900011F190F4803209F1833229F137FC3CC017
:1019A00020ED280F2A3050F536FE20C08AE0989EA0
:1019B000200D1124922E06C08D3291F0803371F7E4
:1019C000689430F8F30193FD859193FF81913F0175
:1019D0008111DACF21C0689431F8689432F8F2CFDF
:1019E000689433F8EFCF689434F8ECCFEAE02E9E99
:1019F000200D1124222E689435F8E4CF8E3229F47C
:101A000036FC04C1689436F8DDCF8C3619F468943E
:101A100037F8D8CF8836B1F2982F9F7D9554933000
:101A2000E0F08336A1F18337C1F1833509F063C05B
:101A30002801F2E04F0E511CF801C080D180692DC1
:101A400070E036FC02C06FEF7FEFC6010E94850E8A
:101A50004C01689437F882010AC00C5F1F4FFFE306
:101A6000F98388248394912C6501E89437F833FE38
:101A70002DC0522C8114910471F5552009F468CFC2
:101A8000B70180E290E00E949B0E5A94F6CFF801D5
:101A9000808189830E5F1F4FE4CF2801F2E04F0E53
:101AA000511CF801C080D180692D70E036FC02C065
:101AB0006FEF7FEFC6010E94900E4C018201D5CFDF
:101AC000B70180E290E00E949B0E2A94281419042A
:101AD00009F0B0F7CECFF60137FC859137FE819142
:101AE0006F01B70190E00E949B0E51105A94F1E0F3
:101AF0008F1A9108BFCF843619F0893609F077C064
:101B0000F80137FE6BC060817181828193810C5F27
:101B10001F4FF32DFF763F2E97FF09C090958095BC
:101B2000709561957F4F8F4F9F4F689437F82AE0EB
:101B300030E0A5010E94CB0EC82ECA188C2C432C75
:101B400036FE0CC0E89440F8C91440F434FE05C0D9
:101B500032FC03C0F32DFE7E4F2E892C44FEAAC01A
:101B6000FE01EC0DF11D8081803309F09CC0242D15
:101B7000297E422E842D8870582E43FCAAC040FE38
:101B8000A4C09C2C821418F42C0C922C981844FE9F
:101B9000A6C0B70180E390E00E949B0E42FE09C000
:101BA00088E790E041FE02C088E590E0B7010E941E
:101BB0009B0EC91408F49FC0CA94D12C9FEFC91A78
:101BC000D90ACA0CDB1CF60182916F01B70190E0C3
:101BD0000E949B0EAC14BD04B1F74FCF60817181A0
:101BE000072E000C880B990B0E5F1F4F92CFD32C42
:101BF000E894D4F82AE030E08537E1F1232D297FFD
:101C0000D22E8F36A9F1F0F4883551F1F701868193
:101C100097812B960FB6F894DEBF0FBECDBFDF9134
:101C2000CF911F910F91FF90EF90DF90CF90BF90D9
:101C3000AF909F908F907F906F905F904F903F906C
:101C40002F900895803749F0883701F7D4FE02C0FD
:101C50006894D2F820E130E00DC06894D4F8F6CF53
:101C600034FE03C0822F8660D82E20E132E002C00D
:101C700028E030E0F801D7FE0FC0608171818281D9
:101C800093810C5F1F4FA5010E94CB0EC82ECA186E
:101C90003D2CE89437F852CF6081718190E080E06C
:101CA0000E5F1F4FF0CF42FC02C0839463CF83943A
:101CB000839460CF842D867809F45CCFF6CFB7018A
:101CC00080E290E00E949B0E83948214C0F3512C1A
:101CD0005ECF522C5818821408F459CFF8CF842DB7
:101CE000867809F466CF8BE241FE80E247FC8DE204
:101CF000B70190E05CCFB70180E390E00E949B0EBB
:101D00009A9457CF8FEF9FEF84CFFC0105906150DD
:101D100070400110D8F7809590958E0F9F1F089501
:101D2000FC016150704001900110D8F780959095AA
:101D30008E0F9F1F08950F931F93CF93DF93182F3C
:101D4000092FEB018B8181FD09C01FEF0FEF812F60
:101D5000902FDF91CF911F910F91089582FF14C0B2
:101D60002E813F818C819D81281739073CF4E881C1
:101D7000F981CF0101969983888310838E819F8199
:101D800001969F838E83E3CFE885F985812F19958E
:101D9000892BA1F3DACFFA01AA27283051F120319B
:101DA00081F1E8946F936E7F6E5F7F4F8F4F9F4FEF
:101DB000AF4FB1E03ED0B4E03CD0670F781F891F31
:101DC0009A1FA11D680F791F8A1F911DA11D6A0FFF
:101DD000711D811D911DA11D20D009F468943F91B2
:101DE0002AE0269F11243019305D3193DEF6CF01B1
:101DF0000895462F4770405D4193B3E00FD0C9F777
:101E0000F6CF462F4F70405D4A3318F0495D31FDE3
:101E10004052419302D0A9F7EACFB4E0A695979536
:101E2000879577956795BA95C9F70097610571050C
:101E300008959B01AC010A2E069457954795379556
:101E40002795BA95C9F7620F731F841F951FA01DB0
:101E5000089511E0CFE3D1E000E006C0802FFE013D
:101E60000E94350A2196011DC034D10780E0080781
:061E7000A9F7F894FFCF72
:101E7600AE02AE02AE02AE02AE02AE02AE02AE02DC
:101E86000000C50380003738392F3435362A313201
:101E9600332D43303D2B323334350A0B0C0D000005
:101EA60000004503AF02DC0292030D03EB02FF02C2
:101EB6000D0A004265626964612061206573636F83
:101EC60067657200312E4167756120322E47617356
:101ED600656F736100696E67726573616E646F5FCB
:101EE60063616E74696461645F616775612000692E
:101EF6006E67726573616E646F5F63616E74696449
:101F060061645F676173656F7361006D6F7374728F
:101F16006F5F746F74616C5F61677561006D6F737D
:101F260074726F5F746F74616C5F676173656F73F2
:101F3600612000736567756E646F5F70726F64759C
:101F460063746F002A2A2A2A00416775613A2024A1
:101F56003530300043616E74696461643A202564EB
:101F660000476173656F73613A2024373030000093
:00000001FF
