:100000000C94DA000C94BB020C9490020C946502E0
:100010000C943A020C940F020C94E4010C94B90174
:100020000C948E010C94FB000C94FB000C94FB00D0
:100030000C94FB000C94FB000C94FB000C94FB0054
:100040000C94FB000C94FB000C94FB000C94FB0044
:100050000C94FB000C94FB000C94FB000C944401EA
:100060000C94FB000C94FB000C94FB000C94FB0024
:100070000C94FB000C94FB000C94FB000C94FB0014
:100080000C94FB000C94FB000C94FB000C94FB0004
:100090000C94FB000C94FB000C94FB000C94FB00F4
:1000A0000C94FB000C94FB000C94FB000C94FB00E4
:1000B0000C94FB000C94FB000C94FB000C94FB00D4
:1000C0000C94FB000C94FB000C94FB000C94FB00C4
:1000D0000C94FB000C94FB000C94FB000C94FB00B4
:1000E0000C94FB000C9425010C9443010C942F01FB
:1000F0000C94390100002200250028002B002E005E
:100100003100340002010000050108010B0100006C
:100110002100240027002A002D00300033000101B7
:100120000000040107010A01050505050705080887
:100130000808020202020A0A080804040404010171
:100140000101010101010303030303030303040786
:1001500007070C0C0C0C0C0C0C0C0202020206061D
:100160000606060606060B0B0B0B0B0B0B0B010210
:1001700010202008081020401020408002010201B9
:100180000804020101020408102040808040201071
:1001900008040201800402018040201008040201CA
:1001A0000804020101020408102040800102040832
:1001B0001020408011241FBECFEFD1E2DEBFCDBFA3
:1001C00000E00CBF12E0A0E0B2E0EEE1F7E000E0FA
:1001D0000BBF02C007900D92A031B107D9F722E002
:1001E000A0E1B2E001C01D92AF31B207E1F70E9479
:1001F000E6020C948D030C940000CF93DF9390E003
:10020000FC01E259FE4F2491885D9E4FFC018491D0
:100210008823C1F090E0880F991FFC01E25FFE4F38
:10022000C591D491FC01EC50FF4FA591B4919FB7BB
:10023000F8943881822F809583238883EC91E22B78
:10024000EC939FBFDF91CF9108958091140290911C
:1002500015020196909315028093140208958091DF
:10026000120290911302019690931302809312024E
:1002700008958091100290911102019690931102BD
:1002800080931002089508951F920F920FB60F9257
:1002900011242F933F938F939F93AF93BF9380919C
:1002A0001B0290911C02A0911D02B0911E02309180
:1002B0001A0223E0230F2D3758F50196A11DB11D19
:1002C00020931A0280931B0290931C02A0931D029C
:1002D000B0931E028091160290911702A09118020D
:1002E000B09119020196A11DB11D80931602909341
:1002F0001702A0931802B0931902BF91AF919F917A
:100300008F913F912F910F900FBE0F901F901895D6
:1003100026E8230F0296A11DB11DD2CF1F920F9286
:100320000FB60F9211240BB60F922F933F934F935A
:100330005F936F937F938F939F93AF93BF93EF934D
:10034000FF93E0910E02F0910F021995FF91EF914A
:10035000BF91AF919F918F917F916F915F914F91DD
:100360003F912F910F900BBE0F900FBE0F901F90DB
:1003700018951F920F920FB60F9211240BB60F9281
:100380002F933F934F935F936F937F938F939F939D
:10039000AF93BF93EF93FF93E0910C02F0910D02A6
:1003A0001995FF91EF91BF91AF919F918F917F919F
:1003B0006F915F914F913F912F910F900BBE0F90D6
:1003C0000FBE0F901F9018951F920F920FB60F92AD
:1003D00011240BB60F922F933F934F935F936F931C
:1003E0007F938F939F93AF93BF93EF93FF93E0918E
:1003F0000202F09103021995FF91EF91BF91AF9125
:100400009F918F917F916F915F914F913F912F912C
:100410000F900BBE0F900FBE0F901F9018951F925C
:100420000F920FB60F9211240BB60F922F933F939A
:100430004F935F936F937F938F939F93AF93BF93EC
:10044000EF93FF93E0910002F09101021995FF9163
:10045000EF91BF91AF919F918F917F916F915F913C
:100460004F913F912F910F900BBE0F900FBE0F90A9
:100470001F9018951F920F920FB60F9211240BB672
:100480000F922F933F934F935F936F937F938F932D
:100490009F93AF93BF93EF93FF93E0910A02F09184
:1004A0000B021995FF91EF91BF91AF919F918F91A1
:1004B0007F916F915F914F913F912F910F900BBE64
:1004C0000F900FBE0F901F9018951F920F920FB6AE
:1004D0000F9211240BB60F922F933F934F935F937C
:1004E0006F937F938F939F93AF93BF93EF93FF93FC
:1004F000E0910802F09109021995FF91EF91BF91E7
:10050000AF919F918F917F916F915F914F913F91AB
:100510002F910F900BBE0F900FBE0F901F9018954C
:100520001F920F920FB60F9211240BB60F922F93BA
:100530003F934F935F936F937F938F939F93AF936B
:10054000BF93EF93FF93E0910602F0910702199594
:10055000FF91EF91BF91AF919F918F917F916F919B
:100560005F914F913F912F910F900BBE0F900FBE57
:100570000F901F9018951F920F920FB60F92112493
:100580000BB60F922F933F934F935F936F937F938D
:100590008F939F93AF93BF93EF93FF93E0910402E8
:1005A000F09105021995FF91EF91BF91AF919F9145
:1005B0008F917F916F915F914F913F912F910F900C
:1005C0000BBE0F900FBE0F901F901895789484B5B6
:1005D000826084BD84B5816084BD85B5826085BD3F
:1005E00085B5816085BD80916E00816080936E00CD
:1005F00010928100809181008260809381008091BF
:10060000810081608093810080918000816080936F
:1006100080008091B10084608093B1008091B0002F
:1006200081608093B00080919100826080939100FE
:100630008091910081608093910080919000816011
:10064000809390008091A10082608093A1008091AE
:10065000A10081608093A1008091A00081608093BF
:10066000A00080912101826080932101809121016D
:10067000816080932101809120018160809320011D
:1006800080917A00846080937A0080917A00826001
:1006900080937A0080917A00816080937A008091C3
:1006A0007A00806880937A001092C10083E10E94F2
:1006B000FD0084E10E94FD0085E10E94FD0085E2CD
:1006C00091E09093090280930802809169008F7CE9
:1006D000806280936900EA9A8FE291E0909307022A
:1006E0008093060280916900837F8860809369000F
:1006F000E99A89E391E09093050280930402809146
:1007000069008C7F826080936900E89AC0E0D0E045
:0E0710002097F1F30E940000FBCFF894FFCF7A
:10071E0043014301430143014301430143014301AB
:00000001FF
